:020000020000FC
:080000000C9422000C94BD00D9
:100040000C94BB0001E0009369000DBB00936E00AF
:10005000002704BD02E005BD0FE104B900ED0AB9B7
:1000600007E007B909B1552705FD0C948E000C94E3
:100070005D000C943200339566276395772773955E
:100080007436E9F76436C9F7383CA9F70895D9E121
:10009000D5B90C94320000E10C94750001E10C9488
:1000A000750002E10C94750003E10C94750004E105
:1000B0000C94750005E10C947500E6B1E3FD0C9419
:1000C00063000C945D0085E091E0B4E006B51FE0AC
:1000D00001230A3001F30B3009F30C3011F30D301A
:1000E00019F30E3021F30F3029F302E005B933E1A3
:1000F0000E943B000C94950050130C9486000C94C5
:1001000083000C94320098B90C94470012E0FFE091
:10011000B8B95F131B2F18B90C944700F6B1F3FD63
:100120000C9494000C948E008827C0E161E01127A4
:100130005527AA273327CBB90E943B005BB9789497
:1001400000000C94A000F894552726952A95522F6C
:10015000853091F25A30C9F05B30D1F05C30D9F083
:100160005D30E1F05E30E9F05F30F1F0332738B90F
:1001700055B90C94320023951895A03021F70E94B0
:10018000C20018952227A1E0089550E10C94B60012
:1001900051E10C94B60052E10C94B60053E10C947A
:0E01A000B60054E10C94B60055E10C94B60084
:00000001FF
