:020000020000FC
:080000000C9422000C948E0008
:100040000C948C0001E0009369000DBB00936E00DE
:10005000002704BD02E005BD0FE104B900ED0AB9B7
:1000600007E007B982E0B1E0C9E0E9B100E4E023CC
:10007000E03411F00C943500002709B160E206234A
:10008000003239F1003201F50C943C0050E10C943F
:10009000880051E10C94880052E10C94880053E1EF
:1000A0000C94880054E10C94880055E10C9488006D
:1000B000339566276395772773957436E9F7643629
:1000C000C9F7383CA9F70895B0E0B8B9C5B90C94A0
:1000D000220000E161E01127552791E0AA2733278C
:1000E0000BB90E9458005BB9789400000C9475001D
:1000F000F89426952A95522F5A3041F25B3049F2F6
:100100005C3051F25D3059F25E3061F25F3069F27D
:10011000B8B955B90C94220023951895A03041F731
:0C0120000E94930018952227A1E008958A
:00000001FF
