:020000020000FC
:080000000C9422000C94400056
:100040000C943E0001E0009369000DBB00936E002C
:10005000002704BD02E005BD0FE104B900ED0AB9B7
:1000600007E007B982E0B1E0C9E009B160E2062328
:10007000003289F1003251F50C9435002395189522
:10008000A030C1F50E9451001895339566276395FD
:10009000772773957436E9F76436C9F7383CA9F7C2
:1000A00008952227A1E0089550E10C948A0051E1BF
:1000B0000C948A0052E10C948A0053E10C948A005B
:1000C00054E10C948A0055E10C948A00B0E0B8B970
:1000D000C5B90C94350000E161E01127552791E086
:1000E000AA2733270BB90E9445005BB9789400001A
:1000F0000C947700F89426952A95522F5A30A1F245
:100100005B30A9F25C30B1F25D30B9F25E30C1F221
:0C0110005F30C9F2B8B955B90C94350045
:00000001FF
