:020000020000FC
:080000000C9422000C94BA00DC
:100040000C94B80001E0009369000DBB00936E00B2
:10005000002704BD02E005BD0FE104B900ED0AB9B7
:1000600007E007B909B1552705FD0C9489000C94E8
:100070005D000C943200339566276395772773955E
:100080007436E9F76436C9F7383CA9F70895D9E121
:10009000D5B90C94320000E10C94750001E10C9488
:1000A000750002E10C94750003E10C94750004E105
:1000B0000C94750005E10C947500E6B1E3FD0C9419
:1000C00063000C945D0085E091E0B4E006B51FE0AC
:1000D00001230A3001F30B3009F30C3011F30D301A
:1000E00019F30E3021F30F3029F302E005B933E1A3
:1000F0000E943B000C94900050130C9486000C94CA
:1001000083000C94320098B90C944700B8B90C9451
:100110004700F6B1F3FD0C948F000C9489008827FA
:10012000C0E161E011275527AA273327CBB90E94E8
:100130003B005BB9789400000C949B00F894552721
:1001400026952A95522F8530B9F25A30D9F05B3076
:10015000E1F05C30E9F05D30F1F05E30F9F05F30F5
:1001600001F1853049F2332738B955B90C94320082
:1001700023951895A03011F70E94BF0018952227EB
:10018000A1E0089550E10C94B10051E10C94B1004C
:1001900052E10C94B10053E10C94B10054E10C9481
:0801A000B10055E10C94B1001F
:00000001FF
