:020000020000FC
:080000000C9422000C94740022
:100040000C94720001E0009369000DBB00936E00F8
:10005000002704BD02E005BD0FE104B900ED0AB9B7
:1000600007E007B982E0B1E0C9E009B105FD0C94F1
:100070004E000C9449000C94350033956627639527
:10008000772773957436E9F76436C9F7383CA9F7D2
:100090000895B1E0B8B9C5B90C94350000E161E04C
:1000A0001127552791E0AA2733270BB90E943D005D
:1000B0005BB9789400000C945A00F8945527269563
:1000C0002A95522F5A30C1F05B30C9F05C30D1F024
:1000D0005D30D9F05E30E1F05F30E9F0B8B955B984
:1000E0000C94350023951895A03039F70E947900BB
:1000F00018952227A1E0089550E10C946E0051E17B
:100100000C946E0052E10C946E0053E10C946E005E
:0C01100054E10C946E0055E10C946E005C
:00000001FF
