:020000020000FC
:080000000C9422000C94AB00EB
:100040000C94A90001E0009369000DBB00936E00C1
:10005000002704BD02E005BD0FE104B900ED0AB9B7
:1000600007E007B982E0B1E0C9E009B1552705FD15
:100070000C9485000C944A000C9435003395662747
:100080006395772773957436E9F76436C9F7383C7A
:10009000A9F70895E6B1E3FD0C9450000C944A00D2
:1000A0005395789406B51FE001230A30E1F00B3038
:1000B000E9F00C30F1F00D30F9F00E3001F10F30B5
:1000C00009F14427F894439505B933E10E943E00B5
:1000D0004430C9F7563021F70E9470000C94350067
:1000E000D9E1D5B9089500E10C94610001E10C94C7
:1000F000610002E10C94610003E10C94610004E1F1
:100100000C94610005E10C94610000E161E01127AD
:10011000552791E0AA2733270BB90E943E005BB90F
:10012000789400000C949100F894552726952A9510
:10013000522F5A30C1F05B30C9F05C30D1F05D30E5
:10014000D9F05E30E1F05F30E9F0B8B955B90C9400
:10015000350023951895A03039F70E94B000189506
:100160002227A1E0089550E10C94A50051E10C94E0
:10017000A50052E10C94A50053E10C94A50054E1B4
:0A0180000C94A50055E10C94A500B5
:00000001FF
