:020000020000FC
:080000000C9422000C94F100A5
:100040000C94EF0001E0009369000DBB00936E007B
:10005000002704BD02E005BD0FE104B900ED0AB9B7
:1000600007E007B909B15527DD2705FD0C94C2004B
:100070000C9476000C9432003395662763957727AD
:1000800073957436E9F76436C9F7383CA9F70895D3
:10009000D0E10C945C00D1E10C945C00D2E10C94B2
:1000A0005C00D03064F0D03004F498B9DA3081F3D9
:1000B000DB3089F3DC3091F3D5B90C943200B8B958
:1000C000D195D5B90C94320000E10C94960001E171
:1000D0000C94960002E10C94960003E10C949600B7
:1000E00004E10C94960005E10C94960009B105FD1D
:1000F0000C943200E6B1E3FD0C9480000C94760081
:10010000EE27E39585E091E0B4E006B51FE001231A
:100110000A95F02F0A30C1F20B30C9F20C30D1F23F
:100120000D30D9F20E30E1F20F30E9F24427439559
:1001300005B933E10E943C004A30C9F70C94C9006C
:100140005F130C94B7000C94B200E630D1F60E9415
:100150003C00FF27F8B932E30E943C000C945100A8
:100160000C94320012E098B9D10F0C94A5005F13E3
:100170000000D15012E0FFE0B8B95F131B2F18B98F
:100180000C94A500F6B1F3FD0C94C8000C94C200C9
:100190008827C0E161E011275527AA273327CBB96B
:1001A0000E943C005BB9789400000C94D400F89451
:1001B000552726952A95522F853011F25A30C9F0CD
:1001C0005B30D1F05C30D9F05D30E1F05E30E9F0C9
:1001D0005F30F1F0332738B955B90C9432002395CC
:1001E0001895A03021F70E94F60018952227A1E06B
:1001F000089550E10C94EA0051E10C94EA0052E1B8
:100200000C94EA0053E10C94EA0054E10C94EA00E7
:0602100055E10C94EA0028
:00000001FF
