:020000020000FC
:080000000C9422000C94030192
:100040000C94010101E0009369000DBB00936E0068
:10005000002704BD02E005BD0FE104B900ED0AB9B7
:1000600007E007B909B15527DD2705FD0C94D40039
:100070000C9488000C94320033956627639577279B
:1000800073957436E9F76436C9F7383CA9F70895D3
:10009000D0E10C945C00D1E10C945C00D2E10C94B2
:1000A0005C00D030ACF0D03004F498B9DA3081F391
:1000B000DB3089F3DC3091F3D5B922272395332740
:1000C0000E943C002830D1F7332735B90C94320018
:1000D000B8B9D195D5B92227239533270E943C0082
:1000E0002830D1F7332735B90C94320000E10C9455
:1000F000A80001E10C94A80002E10C94A80003E11F
:100100000C94A80004E10C94A80005E10C94A8004C
:1001100009B105FD0C943200E6B1E3FD0C949200A8
:100120000C948800EE27E39585E091E0B4E006B5F5
:100130001FE001230A95F02F0A30C1F20B30C9F2FB
:100140000C30D1F20D30D9F20E30E1F20F30E9F27D
:100150004427439505B934E10E943C004830C9F773
:100160000C94DB005F130C94C9000C94C400E630BF
:10017000D1F60E943C00FF27F8B932E30E943C0010
:100180000C9451000C94320012E098B9D10F0C94E9
:10019000B7005F130000D15012E0FFE0B8B95F1361
:1001A0001B2F18B90C94B700F6B1F3FD0C94DA00CC
:1001B0000C94D4008827C0E161E011275527AA27B5
:1001C0003327CBB90E943C005BB9789400000C94B3
:1001D000E600F894552726952A95522F853011F27E
:1001E0005A30C9F05B30D1F05C30D9F05D30E1F0CD
:1001F0005E30E9F05F30F1F0332738B955B90C942F
:10020000320023951895A03021F70E940801189517
:100210002227A1E0089550E10C94FC0051E10C94D8
:10022000FC0052E10C94FC0053E10C94FC0054E1FE
:0A0230000C94FC0055E10C94FC0056
:00000001FF
